{
  "_format": "hh-sol-artifact-1",
  "contractName": "ProxyReader",
  "sourceName": "contracts/ProxyReader.sol",
  "abi": [
    {
      "inputs": [
        {
          "internalType": "contract IUNSRegistry",
          "name": "unsRegistry",
          "type": "address"
        },
        {
          "internalType": "contract ICNSRegistry",
          "name": "cnsRegistry",
          "type": "address"
        }
      ],
      "stateMutability": "nonpayable",
      "type": "constructor"
    },
    {
      "anonymous": false,
      "inputs": [
        {
          "indexed": false,
          "internalType": "uint8",
          "name": "version",
          "type": "uint8"
        }
      ],
      "name": "Initialized",
      "type": "event"
    },
    {
      "inputs": [],
      "name": "NAME",
      "outputs": [
        {
          "internalType": "string",
          "name": "",
          "type": "string"
        }
      ],
      "stateMutability": "view",
      "type": "function"
    },
    {
      "inputs": [],
      "name": "VERSION",
      "outputs": [
        {
          "internalType": "string",
          "name": "",
          "type": "string"
        }
      ],
      "stateMutability": "view",
      "type": "function"
    },
    {
      "inputs": [
        {
          "internalType": "address",
          "name": "owner",
          "type": "address"
        }
      ],
      "name": "balanceOf",
      "outputs": [
        {
          "internalType": "uint256",
          "name": "",
          "type": "uint256"
        }
      ],
      "stateMutability": "view",
      "type": "function"
    },
    {
      "inputs": [
        {
          "internalType": "uint256",
          "name": "tokenId",
          "type": "uint256"
        },
        {
          "internalType": "string",
          "name": "label",
          "type": "string"
        }
      ],
      "name": "childIdOf",
      "outputs": [
        {
          "internalType": "uint256",
          "name": "",
          "type": "uint256"
        }
      ],
      "stateMutability": "view",
      "type": "function"
    },
    {
      "inputs": [
        {
          "internalType": "uint256",
          "name": "tokenId",
          "type": "uint256"
        }
      ],
      "name": "exists",
      "outputs": [
        {
          "internalType": "bool",
          "name": "",
          "type": "bool"
        }
      ],
      "stateMutability": "view",
      "type": "function"
    },
    {
      "inputs": [
        {
          "internalType": "string",
          "name": "key",
          "type": "string"
        },
        {
          "internalType": "uint256",
          "name": "tokenId",
          "type": "uint256"
        }
      ],
      "name": "get",
      "outputs": [
        {
          "internalType": "string",
          "name": "value",
          "type": "string"
        }
      ],
      "stateMutability": "view",
      "type": "function"
    },
    {
      "inputs": [
        {
          "internalType": "uint256",
          "name": "tokenId",
          "type": "uint256"
        }
      ],
      "name": "getApproved",
      "outputs": [
        {
          "internalType": "address",
          "name": "",
          "type": "address"
        }
      ],
      "stateMutability": "view",
      "type": "function"
    },
    {
      "inputs": [
        {
          "internalType": "uint256",
          "name": "keyHash",
          "type": "uint256"
        },
        {
          "internalType": "uint256",
          "name": "tokenId",
          "type": "uint256"
        }
      ],
      "name": "getByHash",
      "outputs": [
        {
          "internalType": "string",
          "name": "key",
          "type": "string"
        },
        {
          "internalType": "string",
          "name": "value",
          "type": "string"
        }
      ],
      "stateMutability": "view",
      "type": "function"
    },
    {
      "inputs": [
        {
          "internalType": "string[]",
          "name": "keys",
          "type": "string[]"
        },
        {
          "internalType": "uint256",
          "name": "tokenId",
          "type": "uint256"
        }
      ],
      "name": "getData",
      "outputs": [
        {
          "internalType": "address",
          "name": "resolver",
          "type": "address"
        },
        {
          "internalType": "address",
          "name": "owner",
          "type": "address"
        },
        {
          "internalType": "string[]",
          "name": "values",
          "type": "string[]"
        }
      ],
      "stateMutability": "view",
      "type": "function"
    },
    {
      "inputs": [
        {
          "internalType": "uint256[]",
          "name": "keyHashes",
          "type": "uint256[]"
        },
        {
          "internalType": "uint256",
          "name": "tokenId",
          "type": "uint256"
        }
      ],
      "name": "getDataByHash",
      "outputs": [
        {
          "internalType": "address",
          "name": "resolver",
          "type": "address"
        },
        {
          "internalType": "address",
          "name": "owner",
          "type": "address"
        },
        {
          "internalType": "string[]",
          "name": "keys",
          "type": "string[]"
        },
        {
          "internalType": "string[]",
          "name": "values",
          "type": "string[]"
        }
      ],
      "stateMutability": "view",
      "type": "function"
    },
    {
      "inputs": [
        {
          "internalType": "uint256[]",
          "name": "keyHashes",
          "type": "uint256[]"
        },
        {
          "internalType": "uint256[]",
          "name": "tokenIds",
          "type": "uint256[]"
        }
      ],
      "name": "getDataByHashForMany",
      "outputs": [
        {
          "internalType": "address[]",
          "name": "resolvers",
          "type": "address[]"
        },
        {
          "internalType": "address[]",
          "name": "owners",
          "type": "address[]"
        },
        {
          "internalType": "string[][]",
          "name": "keys",
          "type": "string[][]"
        },
        {
          "internalType": "string[][]",
          "name": "values",
          "type": "string[][]"
        }
      ],
      "stateMutability": "view",
      "type": "function"
    },
    {
      "inputs": [
        {
          "internalType": "string[]",
          "name": "keys",
          "type": "string[]"
        },
        {
          "internalType": "uint256[]",
          "name": "tokenIds",
          "type": "uint256[]"
        }
      ],
      "name": "getDataForMany",
      "outputs": [
        {
          "internalType": "address[]",
          "name": "resolvers",
          "type": "address[]"
        },
        {
          "internalType": "address[]",
          "name": "owners",
          "type": "address[]"
        },
        {
          "internalType": "string[][]",
          "name": "values",
          "type": "string[][]"
        }
      ],
      "stateMutability": "view",
      "type": "function"
    },
    {
      "inputs": [
        {
          "internalType": "string[]",
          "name": "keys",
          "type": "string[]"
        },
        {
          "internalType": "uint256",
          "name": "tokenId",
          "type": "uint256"
        }
      ],
      "name": "getMany",
      "outputs": [
        {
          "internalType": "string[]",
          "name": "values",
          "type": "string[]"
        }
      ],
      "stateMutability": "view",
      "type": "function"
    },
    {
      "inputs": [
        {
          "internalType": "uint256[]",
          "name": "keyHashes",
          "type": "uint256[]"
        },
        {
          "internalType": "uint256",
          "name": "tokenId",
          "type": "uint256"
        }
      ],
      "name": "getManyByHash",
      "outputs": [
        {
          "internalType": "string[]",
          "name": "keys",
          "type": "string[]"
        },
        {
          "internalType": "string[]",
          "name": "values",
          "type": "string[]"
        }
      ],
      "stateMutability": "view",
      "type": "function"
    },
    {
      "inputs": [
        {
          "internalType": "address",
          "name": "",
          "type": "address"
        },
        {
          "internalType": "address",
          "name": "",
          "type": "address"
        }
      ],
      "name": "isApprovedForAll",
      "outputs": [
        {
          "internalType": "bool",
          "name": "",
          "type": "bool"
        }
      ],
      "stateMutability": "pure",
      "type": "function"
    },
    {
      "inputs": [
        {
          "internalType": "address",
          "name": "spender",
          "type": "address"
        },
        {
          "internalType": "uint256",
          "name": "tokenId",
          "type": "uint256"
        }
      ],
      "name": "isApprovedOrOwner",
      "outputs": [
        {
          "internalType": "bool",
          "name": "",
          "type": "bool"
        }
      ],
      "stateMutability": "view",
      "type": "function"
    },
    {
      "inputs": [
        {
          "internalType": "bytes[]",
          "name": "data",
          "type": "bytes[]"
        }
      ],
      "name": "multicall",
      "outputs": [
        {
          "internalType": "bytes[]",
          "name": "results",
          "type": "bytes[]"
        }
      ],
      "stateMutability": "nonpayable",
      "type": "function"
    },
    {
      "inputs": [
        {
          "internalType": "uint256",
          "name": "tokenId",
          "type": "uint256"
        }
      ],
      "name": "ownerOf",
      "outputs": [
        {
          "internalType": "address",
          "name": "",
          "type": "address"
        }
      ],
      "stateMutability": "view",
      "type": "function"
    },
    {
      "inputs": [
        {
          "internalType": "uint256[]",
          "name": "tokenIds",
          "type": "uint256[]"
        }
      ],
      "name": "ownerOfForMany",
      "outputs": [
        {
          "internalType": "address[]",
          "name": "owners",
          "type": "address[]"
        }
      ],
      "stateMutability": "view",
      "type": "function"
    },
    {
      "inputs": [
        {
          "internalType": "uint256",
          "name": "tokenId",
          "type": "uint256"
        }
      ],
      "name": "registryOf",
      "outputs": [
        {
          "internalType": "address",
          "name": "",
          "type": "address"
        }
      ],
      "stateMutability": "view",
      "type": "function"
    },
    {
      "inputs": [
        {
          "internalType": "uint256",
          "name": "tokenId",
          "type": "uint256"
        }
      ],
      "name": "resolverOf",
      "outputs": [
        {
          "internalType": "address",
          "name": "",
          "type": "address"
        }
      ],
      "stateMutability": "view",
      "type": "function"
    },
    {
      "inputs": [
        {
          "internalType": "address",
          "name": "addr",
          "type": "address"
        }
      ],
      "name": "reverseOf",
      "outputs": [
        {
          "internalType": "uint256",
          "name": "",
          "type": "uint256"
        }
      ],
      "stateMutability": "view",
      "type": "function"
    },
    {
      "inputs": [
        {
          "internalType": "bytes4",
          "name": "interfaceId",
          "type": "bytes4"
        }
      ],
      "name": "supportsInterface",
      "outputs": [
        {
          "internalType": "bool",
          "name": "",
          "type": "bool"
        }
      ],
      "stateMutability": "view",
      "type": "function"
    },
    {
      "inputs": [
        {
          "internalType": "uint256",
          "name": "tokenId",
          "type": "uint256"
        }
      ],
      "name": "tokenURI",
      "outputs": [
        {
          "internalType": "string",
          "name": "",
          "type": "string"
        }
      ],
      "stateMutability": "view",
      "type": "function"
    }
  ],
  "bytecode": "0x60c06040523480156200001157600080fd5b506040516200316c3803806200316c833981016040819052620000349162000053565b6001600160601b0319606092831b8116608052911b1660a052620000aa565b6000806040838503121562000066578182fd5b8251620000738162000091565b6020840151909250620000868162000091565b809150509250929050565b6001600160a01b0381168114620000a757600080fd5b50565b60805160601c60a05160601c612fcb620001a1600039600081816104e60152818161096f01528181610d5f01528181610dab0152818161141501528181611465015281816115e9015281816119c101528181611ee301528181611f7801526122bd0152600081816105840152818161068a0152818161080101528181610a1401528181610ad201528181610c2c01528181610ce101528181610e5101528181611365015281816113ef015281816116360152818161174d01528181611a5d01528181611c1501528181611cbc01528181611e5c01528181611f28015281816120a50152818161214c01526124010152612fcb6000f3fe608060405234801561001057600080fd5b50600436106101585760003560e01c8063869b8884116100c3578063b3f9e4cb1161007c578063b3f9e4cb1461037e578063b85afd2814610391578063c15ae7cf146103b2578063c87b56dd146103d2578063e985e9c5146103e5578063ffa1ad74146103f857600080fd5b8063869b8884146102b457806391015f6b146102d7578063933c051d146102f9578063a3f4df7e1461031b578063a81ce6f91461034b578063ac9650d81461035e57600080fd5b80634f558e79116101155780634f558e79146102265780636352211e14610239578063672b9f811461024c57806368b62d321461026d57806370a082311461028e5780637e37479e146102a157600080fd5b806301ffc9a71461015d5780630328075514610185578063081812fc146101a85780631bd8cc1a146101d35780631be5e7ed146101f3578063430c208114610213575b600080fd5b61017061016b3660046128a7565b61041c565b60405190151581526020015b60405180910390f35b61019861019336600461285e565b610489565b60405161017c9493929190612ba1565b6101bb6101b636600461298c565b6104ac565b6040516001600160a01b03909116815260200161017c565b6101e66101e1366004612734565b610607565b60405161017c9190612d8d565b6102066102013660046128cf565b6107da565b60405161017c9190612e2a565b610170610221366004612662565b610925565b61017061023436600461298c565b610a8e565b6101bb61024736600461298c565b610a99565b61025f61025a366004612a05565b610aa4565b60405161017c929190612e3d565b61028061027b3660046129bc565b610c12565b60405190815260200161017c565b61028061029c3660046125f2565b610cbd565b6102806102af3660046125f2565b610e2f565b6102c76102c236600461280f565b610ecd565b60405161017c9493929190612c40565b6102ea6102e5366004612734565b611141565b60405161017c93929190612b75565b61030c6103073660046126cc565b611161565b60405161017c93929190612bfd565b610206604051806040016040528060118152602001702aa7299d10283937bc3c902932b0b232b960791b81525081565b6101bb61035936600461298c565b61134c565b61037161036c36600461268d565b611491565b60405161017c9190612c8d565b6101bb61038c36600461298c565b6115af565b6103a461039f36600461285e565b61166d565b60405161017c929190612da0565b6103c56103c036600461268d565b6118a3565b60405161017c9190612bea565b6102066103e036600461298c565b61197b565b6101706103f336600461262a565b611ae3565b61020660405180604001604052806005815260200164302e322e3360d81b81525081565b60006001600160e01b031982166324cd4b9560e21b148061044d57506001600160e01b03198216636fa624af60e11b145b8061046857506001600160e01b031982166308da864d60e31b145b8061048357506301ffc9a760e01b6001600160e01b03198316145b92915050565b60008060608061049a878787611b33565b93509350935093505b93509350935093565b60006104b782611e1c565b6104c357506000919050565b6104cc82611edf565b61056e5760405163020604bf60e21b8152600481018390527f00000000000000000000000000000000000000000000000000000000000000006001600160a01b03169063081812fc906024015b60206040518083038186803b15801561053157600080fd5b505afa158015610545573d6000803e3d6000fd5b505050506040513d601f19601f82011682018060405250810190610569919061260e565b610483565b60405163020604bf60e21b8152600481018390527f00000000000000000000000000000000000000000000000000000000000000006001600160a01b03169063081812fc906024015b60206040518083038186803b1580156105cf57600080fd5b505afa1580156105e3573d6000803e3d6000fd5b505050506040513d601f19601f82011682018060405250810190610483919061260e565b6060826001600160401b0381111561062f57634e487b7160e01b600052604160045260246000fd5b60405190808252806020026020018201604052801561066257816020015b606081526020019060019003908161064d5790505b50905061066e82611edf565b1561071e57604051630dec660d60e11b81526001600160a01b037f00000000000000000000000000000000000000000000000000000000000000001690631bd8cc1a906106c390879087908790600401612cee565b60006040518083038186803b1580156106db57600080fd5b505afa1580156106ef573d6000803e3d6000fd5b505050506040513d6000823e601f3d908101601f19168201604052610717919081019061277d565b90506107d3565b600061072983611f5f565b90506001600160a01b0381163b1515801561074357508315155b156107d157604051630dec660d60e11b81526001600160a01b03821690631bd8cc1a9061077890889088908890600401612cee565b60006040518083038186803b15801561079057600080fd5b505afa9250505080156107c557506040513d6000823e601f3d908101601f191682016040526107c2919081019061277d565b60015b6107ce576107d1565b91505b505b9392505050565b60606107e582611edf565b1561088e57604051631be5e7ed60e01b81526001600160a01b037f00000000000000000000000000000000000000000000000000000000000000001690631be5e7ed9061083a90879087908790600401612e06565b60006040518083038186803b15801561085257600080fd5b505afa158015610866573d6000803e3d6000fd5b505050506040513d6000823e601f3d908101601f191682016040526107179190810190612904565b600061089983611f5f565b90506001600160a01b0381163b156107d157604051631be5e7ed60e01b81526001600160a01b03821690631be5e7ed906108db90889088908890600401612e06565b60006040518083038186803b1580156108f357600080fd5b505afa9250505080156107c557506040513d6000823e601f3d908101601f191682016040526107c29190810190612904565b600061093082611e1c565b61093c57506000610483565b61094582611edf565b6109ee5760405163430c208160e01b81526001600160a01b038481166004830152602482018490527f0000000000000000000000000000000000000000000000000000000000000000169063430c20819060440160206040518083038186803b1580156109b157600080fd5b505afa1580156109c5573d6000803e3d6000fd5b505050506040513d601f19601f820116820180604052508101906109e99190612887565b6107d3565b60405163430c208160e01b81526001600160a01b038481166004830152602482018490527f0000000000000000000000000000000000000000000000000000000000000000169063430c20819060440160206040518083038186803b158015610a5657600080fd5b505afa158015610a6a573d6000803e3d6000fd5b505050506040513d601f19601f820116820180604052508101906107d39190612887565b600061048382611e1c565b600061048382611fff565b606080610ab083611edf565b15610b615760405163672b9f8160e01b815260048101859052602481018490527f00000000000000000000000000000000000000000000000000000000000000006001600160a01b03169063672b9f819060440160006040518083038186803b158015610b1c57600080fd5b505afa158015610b30573d6000803e3d6000fd5b505050506040513d6000823e601f3d908101601f19168201604052610b589190810190612936565b91509150610c0b565b6000610b6c84611f5f565b90506001600160a01b0381163b15610c095760405163672b9f8160e01b815260048101869052602481018590526001600160a01b0382169063672b9f819060440160006040518083038186803b158015610bc557600080fd5b505afa925050508015610bfa57506040513d6000823e601f3d908101601f19168201604052610bf79190810190612936565b60015b610c0357610c09565b90935091505b505b9250929050565b60405163345b169960e11b81526000906001600160a01b037f000000000000000000000000000000000000000000000000000000000000000016906368b62d3290610c6590879087908790600401612e62565b60206040518083038186803b158015610c7d57600080fd5b505afa158015610c91573d6000803e3d6000fd5b505050506040513d601f19601f82011682018060405250810190610cb591906129a4565b949350505050565b6040516370a0823160e01b81526001600160a01b03828116600483015260009182917f000000000000000000000000000000000000000000000000000000000000000016906370a082319060240160206040518083038186803b158015610d2357600080fd5b505afa158015610d37573d6000803e3d6000fd5b505050506040513d601f19601f82011682018060405250810190610d5b91906129a4565b90507f00000000000000000000000000000000000000000000000000000000000000006001600160a01b031615610483576040516370a0823160e01b81526001600160a01b0384811660048301527f000000000000000000000000000000000000000000000000000000000000000016906370a082319060240160206040518083038186803b158015610ded57600080fd5b505afa158015610e01573d6000803e3d6000fd5b505050506040513d601f19601f82011682018060405250810190610e2591906129a4565b6107d39082612ef0565b604051633f1ba3cf60e11b81526001600160a01b0382811660048301526000917f000000000000000000000000000000000000000000000000000000000000000090911690637e37479e9060240160206040518083038186803b158015610e9557600080fd5b505afa158015610ea9573d6000803e3d6000fd5b505050506040513d601f19601f8201168201806040525081019061048391906129a4565b6060808080846001600160401b03811115610ef857634e487b7160e01b600052604160045260246000fd5b604051908082528060200260200182016040528015610f21578160200160208202803683370190505b509350846001600160401b03811115610f4a57634e487b7160e01b600052604160045260246000fd5b604051908082528060200260200182016040528015610f73578160200160208202803683370190505b509250846001600160401b03811115610f9c57634e487b7160e01b600052604160045260246000fd5b604051908082528060200260200182016040528015610fcf57816020015b6060815260200190600190039081610fba5790505b509150846001600160401b03811115610ff857634e487b7160e01b600052604160045260246000fd5b60405190808252806020026020018201604052801561102b57816020015b60608152602001906001900390816110165790505b50905060005b858110156111355761106a898989898581811061105e57634e487b7160e01b600052603260045260246000fd5b90506020020135611b33565b88858151811061108a57634e487b7160e01b600052603260045260246000fd5b602002602001018886815181106110b157634e487b7160e01b600052603260045260246000fd5b602002602001018887815181106110d857634e487b7160e01b600052603260045260246000fd5b602002602001018888815181106110ff57634e487b7160e01b600052603260045260246000fd5b6020908102919091010193909352929091526001600160a01b03928316909152911690528061112d81612f38565b915050611031565b50945094509450949050565b6000806060611151868686612020565b9250925092505b93509350939050565b60608080836001600160401b0381111561118b57634e487b7160e01b600052604160045260246000fd5b6040519080825280602002602001820160405280156111b4578160200160208202803683370190505b509250836001600160401b038111156111dd57634e487b7160e01b600052604160045260246000fd5b604051908082528060200260200182016040528015611206578160200160208202803683370190505b509150836001600160401b0381111561122f57634e487b7160e01b600052604160045260246000fd5b60405190808252806020026020018201604052801561126257816020015b606081526020019060019003908161124d5790505b50905060005b84811015611341576112a1888888888581811061129557634e487b7160e01b600052603260045260246000fd5b90506020020135612020565b8684815181106112c157634e487b7160e01b600052603260045260246000fd5b602002602001018685815181106112e857634e487b7160e01b600052603260045260246000fd5b6020026020010186868151811061130f57634e487b7160e01b600052603260045260246000fd5b60209081029190910101929092526001600160a01b03928316909152911690528061133981612f38565b915050611268565b509450945094915050565b604051634f558e7960e01b8152600481018290526000907f00000000000000000000000000000000000000000000000000000000000000006001600160a01b031690634f558e799060240160206040518083038186803b1580156113af57600080fd5b505afa1580156113c3573d6000803e3d6000fd5b505050506040513d601f19601f820116820180604052508101906113e79190612887565b1561141357507f0000000000000000000000000000000000000000000000000000000000000000919050565b7f00000000000000000000000000000000000000000000000000000000000000006001600160a01b03161580159061145d57506000611451836122a4565b6001600160a01b031614155b1561148957507f0000000000000000000000000000000000000000000000000000000000000000919050565b506000919050565b6060816001600160401b038111156114b957634e487b7160e01b600052604160045260246000fd5b6040519080825280602002602001820160405280156114ec57816020015b60608152602001906001900390816114d75790505b50905060005b828110156115a85761156a3085858481811061151e57634e487b7160e01b600052603260045260246000fd5b90506020028101906115309190612e7c565b8080601f0160208091040260200160405190810160405280939291908181526020018383808284376000920191909152506122f492505050565b82828151811061158a57634e487b7160e01b600052603260045260246000fd5b602002602001018190525080806115a090612f38565b9150506114f2565b5092915050565b60006115ba82611e1c565b6115c657506000919050565b6115cf82611edf565b6116205760405163b3f9e4cb60e01b8152600481018390527f00000000000000000000000000000000000000000000000000000000000000006001600160a01b03169063b3f9e4cb90602401610519565b60405163b3f9e4cb60e01b8152600481018390527f00000000000000000000000000000000000000000000000000000000000000006001600160a01b03169063b3f9e4cb906024016105b7565b606080836001600160401b0381111561169657634e487b7160e01b600052604160045260246000fd5b6040519080825280602002602001820160405280156116c957816020015b60608152602001906001900390816116b45790505b509150836001600160401b038111156116f257634e487b7160e01b600052604160045260246000fd5b60405190808252806020026020018201604052801561172557816020015b60608152602001906001900390816117105790505b50905061173183611edf565b156117e35760405163170b5fa560e31b81526001600160a01b037f0000000000000000000000000000000000000000000000000000000000000000169063b85afd289061178690889088908890600401612dc5565b60006040518083038186803b15801561179e57600080fd5b505afa1580156117b2573d6000803e3d6000fd5b505050506040513d6000823e601f3d908101601f191682016040526117da91908101906127af565b9150915061189b565b60006117ee84611f5f565b90506001600160a01b0381163b1515801561180857508415155b156118995760405163170b5fa560e31b81526001600160a01b0382169063b85afd289061183d90899089908990600401612dc5565b60006040518083038186803b15801561185557600080fd5b505afa92505050801561188a57506040513d6000823e601f3d908101601f1916820160405261188791908101906127af565b60015b61189357611899565b90935091505b505b935093915050565b6060816001600160401b038111156118cb57634e487b7160e01b600052604160045260246000fd5b6040519080825280602002602001820160405280156118f4578160200160208202803683370190505b50905060005b828110156115a85761193184848381811061192557634e487b7160e01b600052603260045260246000fd5b90506020020135611fff565b82828151811061195157634e487b7160e01b600052603260045260246000fd5b6001600160a01b03909216602092830291909101909101528061197381612f38565b9150506118fa565b606061198682611e1c565b61199e57505060408051602081019091526000815290565b6119a782611edf565b611a475760405163c87b56dd60e01b8152600481018390527f00000000000000000000000000000000000000000000000000000000000000006001600160a01b03169063c87b56dd9060240160006040518083038186803b158015611a0b57600080fd5b505afa158015611a1f573d6000803e3d6000fd5b505050506040513d6000823e601f3d908101601f191682016040526105699190810190612904565b60405163c87b56dd60e01b8152600481018390527f00000000000000000000000000000000000000000000000000000000000000006001600160a01b03169063c87b56dd9060240160006040518083038186803b158015611aa757600080fd5b505afa158015611abb573d6000803e3d6000fd5b505050506040513d6000823e601f3d908101601f191682016040526104839190810190612904565b60405162461bcd60e51b815260206004820152601f60248201527f50726f78795265616465723a20554e535550504f525445445f4d4554484f440060448201526000906064015b60405180910390fd5b600080606080856001600160401b03811115611b5f57634e487b7160e01b600052604160045260246000fd5b604051908082528060200260200182016040528015611b9257816020015b6060815260200190600190039081611b7d5790505b509150856001600160401b03811115611bbb57634e487b7160e01b600052604160045260246000fd5b604051908082528060200260200182016040528015611bee57816020015b6060815260200190600190039081611bd95790505b509050611bfa85611edf565b15611d535760405163b3f9e4cb60e01b8152600481018690527f00000000000000000000000000000000000000000000000000000000000000006001600160a01b03169063b3f9e4cb9060240160206040518083038186803b158015611c5f57600080fd5b505afa158015611c73573d6000803e3d6000fd5b505050506040513d601f19601f82011682018060405250810190611c97919061260e565b9350611ca2856123e8565b60405163170b5fa560e31b81529093506001600160a01b037f0000000000000000000000000000000000000000000000000000000000000000169063b85afd2890611cf5908a908a908a90600401612dc5565b60006040518083038186803b158015611d0d57600080fd5b505afa158015611d21573d6000803e3d6000fd5b505050506040513d6000823e601f3d908101601f19168201604052611d4991908101906127af565b90925090506104a3565b611d5c85611f5f565b9350611d67856122a4565b92506001600160a01b0384163b15158015611d83575060008251115b156104a35760405163170b5fa560e31b81526001600160a01b0385169063b85afd2890611db8908a908a908a90600401612dc5565b60006040518083038186803b158015611dd057600080fd5b505afa925050508015611e0557506040513d6000823e601f3d908101601f19168201604052611e0291908101906127af565b60015b611e0e576104a3565b909250905093509350935093565b6000611e2782611edf565b611e46576000611e36836122a4565b6001600160a01b03161415610483565b604051634f558e7960e01b8152600481018390527f00000000000000000000000000000000000000000000000000000000000000006001600160a01b031690634f558e79906024015b60206040518083038186803b158015611ea757600080fd5b505afa158015611ebb573d6000803e3d6000fd5b505050506040513d601f19601f820116820180604052508101906104839190612887565b60007f00000000000000000000000000000000000000000000000000000000000000006001600160a01b031615806104835750604051634f558e7960e01b8152600481018390527f00000000000000000000000000000000000000000000000000000000000000006001600160a01b031690634f558e7990602401611e8f565b60405163b3f9e4cb60e01b8152600481018290526000907f00000000000000000000000000000000000000000000000000000000000000006001600160a01b03169063b3f9e4cb906024015b60206040518083038186803b158015611fc357600080fd5b505afa925050508015611ff3575060408051601f3d908101601f19168201909252611ff09181019061260e565b60015b61048357506000919050565b600061200a82611edf565b61201757610569826122a4565b610483826123e8565b6000806060846001600160401b0381111561204b57634e487b7160e01b600052604160045260246000fd5b60405190808252806020026020018201604052801561207e57816020015b60608152602001906001900390816120695790505b50905061208a84611edf565b156121e05760405163b3f9e4cb60e01b8152600481018590527f00000000000000000000000000000000000000000000000000000000000000006001600160a01b03169063b3f9e4cb9060240160206040518083038186803b1580156120ef57600080fd5b505afa158015612103573d6000803e3d6000fd5b505050506040513d601f19601f82011682018060405250810190612127919061260e565b9250612132846123e8565b604051630dec660d60e11b81529092506001600160a01b037f00000000000000000000000000000000000000000000000000000000000000001690631bd8cc1a9061218590899089908990600401612cee565b60006040518083038186803b15801561219d57600080fd5b505afa1580156121b1573d6000803e3d6000fd5b505050506040513d6000823e601f3d908101601f191682016040526121d9919081019061277d565b9050611158565b6121e984611f5f565b92506121f4846122a4565b91506001600160a01b0383163b1515801561220e57508415155b1561115857604051630dec660d60e11b81526001600160a01b03841690631bd8cc1a9061224390899089908990600401612cee565b60006040518083038186803b15801561225b57600080fd5b505afa92505050801561229057506040513d6000823e601f3d908101601f1916820160405261228d919081019061277d565b60015b61229957611158565b905093509350939050565b6040516331a9108f60e11b8152600481018290526000907f00000000000000000000000000000000000000000000000000000000000000006001600160a01b031690636352211e90602401611fab565b60606001600160a01b0383163b61235c5760405162461bcd60e51b815260206004820152602660248201527f416464726573733a2064656c65676174652063616c6c20746f206e6f6e2d636f6044820152651b9d1c9858dd60d21b6064820152608401611b2a565b600080846001600160a01b0316846040516123779190612b59565b600060405180830381855af49150503d80600081146123b2576040519150601f19603f3d011682016040523d82523d6000602084013e6123b7565b606091505b50915091506123df8282604051806060016040528060278152602001612f9860279139612438565b95945050505050565b6040516331a9108f60e11b8152600481018290526000907f00000000000000000000000000000000000000000000000000000000000000006001600160a01b031690636352211e90602401611fab565b606083156124475750816107d3565b8251156124575782518084602001fd5b8160405162461bcd60e51b8152600401611b2a9190612e2a565b60008083601f840112612482578182fd5b5081356001600160401b03811115612498578182fd5b6020830191508360208260051b8501011115610c0b57600080fd5b600082601f8301126124c3578081fd5b815160206001600160401b03808311156124df576124df612f69565b8260051b6124ee838201612ec0565b8481528381019087850183890186018a1015612508578788fd5b8793505b8684101561254557805185811115612522578889fd5b6125308b88838d0101612591565b8452506001939093019291850191850161250c565b5098975050505050505050565b60008083601f840112612563578182fd5b5081356001600160401b03811115612579578182fd5b602083019150836020828501011115610c0b57600080fd5b600082601f8301126125a1578081fd5b81516001600160401b038111156125ba576125ba612f69565b6125cd601f8201601f1916602001612ec0565b8181528460208386010111156125e1578283fd5b610cb5826020830160208701612f08565b600060208284031215612603578081fd5b81356107d381612f7f565b60006020828403121561261f578081fd5b81516107d381612f7f565b6000806040838503121561263c578081fd5b823561264781612f7f565b9150602083013561265781612f7f565b809150509250929050565b60008060408385031215612674578182fd5b823561267f81612f7f565b946020939093013593505050565b6000806020838503121561269f578182fd5b82356001600160401b038111156126b4578283fd5b6126c085828601612471565b90969095509350505050565b600080600080604085870312156126e1578182fd5b84356001600160401b03808211156126f7578384fd5b61270388838901612471565b9096509450602087013591508082111561271b578384fd5b5061272887828801612471565b95989497509550505050565b600080600060408486031215612748578283fd5b83356001600160401b0381111561275d578384fd5b61276986828701612471565b909790965060209590950135949350505050565b60006020828403121561278e578081fd5b81516001600160401b038111156127a3578182fd5b610cb5848285016124b3565b600080604083850312156127c1578182fd5b82516001600160401b03808211156127d7578384fd5b6127e3868387016124b3565b935060208501519150808211156127f8578283fd5b50612805858286016124b3565b9150509250929050565b60008060008060408587031215612824578081fd5b84356001600160401b038082111561283a578283fd5b61284688838901612471565b9096509450602087013591508082111561271b578283fd5b600080600060408486031215612872578081fd5b83356001600160401b0381111561275d578182fd5b600060208284031215612898578081fd5b815180151581146107d3578182fd5b6000602082840312156128b8578081fd5b81356001600160e01b0319811681146107d3578182fd5b6000806000604084860312156128e3578081fd5b83356001600160401b038111156128f8578182fd5b61276986828701612552565b600060208284031215612915578081fd5b81516001600160401b0381111561292a578182fd5b610cb584828501612591565b60008060408385031215612948578182fd5b82516001600160401b038082111561295e578384fd5b61296a86838701612591565b9350602085015191508082111561297f578283fd5b5061280585828601612591565b60006020828403121561299d578081fd5b5035919050565b6000602082840312156129b5578081fd5b5051919050565b6000806000604084860312156129d0578081fd5b8335925060208401356001600160401b038111156129ec578182fd5b6129f886828701612552565b9497909650939450505050565b60008060408385031215612a17578182fd5b50508035926020909101359150565b6000815180845260208085019450808401835b83811015612a5e5781516001600160a01b031687529582019590820190600101612a39565b509495945050505050565b600082825180855260208086019550808260051b840101818601855b84811015612ab357601f19868403018952612aa1838351612ac0565b98840198925090830190600101612a85565b5090979650505050505050565b6000815180845260208085019450848260051b8601828601855b85811015612ab3578383038952612af2838351612b04565b98850198925090840190600101612ada565b60008151808452612b1c816020860160208601612f08565b601f01601f19169290920160200192915050565b81835281816020850137506000828201602090810191909152601f909101601f19169091010190565b60008251612b6b818460208701612f08565b9190910192915050565b6001600160a01b038481168252831660208201526060604082018190526000906123df90830184612ac0565b6001600160a01b03858116825284166020820152608060408201819052600090612bcd90830185612ac0565b8281036060840152612bdf8185612ac0565b979650505050505050565b6020815260006107d36020830184612a26565b606081526000612c106060830186612a26565b8281036020840152612c228186612a26565b90508281036040840152612c368185612a69565b9695505050505050565b608081526000612c536080830187612a26565b8281036020840152612c658187612a26565b90508281036040840152612c798186612a69565b90508281036060840152612bdf8185612a69565b6000602080830181845280855180835260408601915060408160051b8701019250838701855b82811015612ce157603f19888603018452612ccf858351612b04565b94509285019290850190600101612cb3565b5092979650505050505050565b6040808252810183905260006060600585901b8301810190830186835b87811015612d7957858403605f190183528135368a9003601e19018112612d30578586fd5b8901803560206001600160401b03821115612d49578788fd5b8136038c1315612d57578788fd5b612d648783838601612b30565b96509485019493909301925050600101612d0b565b505050602092909201929092529392505050565b6020815260006107d36020830184612ac0565b604081526000612db36040830185612ac0565b82810360208401526123df8185612ac0565b6040808252810183905260006001600160fb1b03841115612de4578081fd5b8360051b80866060850137820160600190815260209091019190915292915050565b604081526000612e1a604083018587612b30565b9050826020830152949350505050565b6020815260006107d36020830184612b04565b604081526000612e506040830185612b04565b82810360208401526123df8185612b04565b8381526040602082015260006123df604083018486612b30565b6000808335601e19843603018112612e92578283fd5b8301803591506001600160401b03821115612eab578283fd5b602001915036819003821315610c0b57600080fd5b604051601f8201601f191681016001600160401b0381118282101715612ee857612ee8612f69565b604052919050565b60008219821115612f0357612f03612f53565b500190565b60005b83811015612f23578181015183820152602001612f0b565b83811115612f32576000848401525b50505050565b6000600019821415612f4c57612f4c612f53565b5060010190565b634e487b7160e01b600052601160045260246000fd5b634e487b7160e01b600052604160045260246000fd5b6001600160a01b0381168114612f9457600080fd5b5056fe416464726573733a206c6f772d6c6576656c2064656c65676174652063616c6c206661696c6564a164736f6c6343000804000a",
  "linkReferences": {},
  "deployedLinkReferences": {}
}